:0200000480007A
:10000000370100801301010BE7000100130000001D
:1000100000000000000000000000000000000000E0
:10002000232E11FE232C51FE232A61FE232871FE6C
:100030002326A1FE2324B1FE2322C1FE2320D1FECC
:10004000232EE1FC232CF1FC232A01FD232811FDA2
:100050002326C1FD2324D1FD2322E1FD2320F1FD30
:10006000130101FCEF00C02A8320C1038322810316
:1000700003234103832301030325C1028325810256
:1000800003264102832601020327C1018327810140
:100090000328410183280101032EC100832E810022
:1000A000032F4100832F010013010104730020304E
:1000B000971100009381819D1701000013018118A1
:1000C000170500001305851C970500009385051C86
:1000D0006308B50023200500130545006FF05FFF9E
:1000E0001385C1951301C1FF9385C195630EB500BA
:1000F00083260500130545002320A100E7800600A4
:10010000032501006FF05FFE130141003715000069
:1001100013050588731045303725000013058580C9
:1001200073100530EF00001F6F000000000000009A
:0401300000000000CB
:10024000596F7520676F74206861636B6564203A2D
:100250002900000057454C434F4D4520544F205432
:1002600048452052495343562048454C4C4F20574F
:100270004F524C4420554152542050524F47524106
:080280004D21210000000000E7
:10028800370701F083470500639407006780000083
:100298008326470013D606011376F60FE30A06FEF7
:1002A8002320F700130515006FF0DFFD130101FF90
:1002B80023261100EFF0DFFCB70701F003A7470082
:1002C8009356070193F6F60FE38A06FE1307A0007C
:1002D80023A0E7008320C10013010101678000000B
:1002E80093070000370700F06394A70067800000B9
:1002F80083264700938717006FF01FFF370500809C
:0C030800130505246FF09FFA67800000C9
:1003140037050080130101FE13054525232E110026
:10032400232C8100232A9100232821012326310133
:10033400232441012322510123206101EFF05FF7BF
:10034400B7070100370700F09387F7FF2324F7006E
:1003540037555D052322F700130505A83719030057
:10036400EFF05FF813040002B70401F0130AF0077A
:10037400930AA000130BD000B70900F0130909D4A5
:1003840083A7440013D707011377F70FE30A07FE87
:1003940023A08400130414001374F40F631844039B
:1003A40083A7440013D707011377F70FE30A07FE67
:1003B40023A0540183A7440013D707011377F70F31
:1003C400E30A07FE23A064011304000283A70900C3
:1003D4001305090023A2F900EFF0DFF06FF05FFAD4
:040000058000000077
:00000001FF
